:020000040800F2
:1000000020040020C101000849040008BF030008C3
:100010004504000835020008EB0B00080000000052
:100020000000000000000000000000002906000899
:100030003902000800000000FD0400082109000842
:10004000DB010008DB010008DB010008DB01000820
:10005000DB010008DB010008DB010008DB01000810
:10006000DB010008DB010008DB010008DB01000800
:10007000DB010008DB010008DB010008DB010008F0
:10008000DB010008DB010008DB010008DB010008E0
:10009000DB010008DB010008DB010008DB010008D0
:1000A000DB010008DB010008DB010008DB010008C0
:1000B000DB010008DB010008DB010008DB010008B0
:1000C000DB010008DB010008DB010008DB010008A0
:1000D000DB0100088D090008DB010008DB010008D6
:1000E000DB010008DB010008DB010008DB01000880
:1000F000DB010008DB010008DB010008DB01000870
:10010000DB010008DB010008DB010008DB0100085F
:10011000DB010008DB010008DB010008DB0100084F
:10012000DB010008DB010008DB010008DB0100083F
:10013000DB010008DB010008DB010008DB0100082F
:10014000DB010008DB010008DB010008DB0100081F
:10015000DB010008DB010008DB010008DB0100080F
:10016000DB010008DB010008DB010008DB010008FF
:10017000DB010008DB010008DB010008DB010008EF
:10018000DB010008DB010008DB010008DB010008DF
:10019000DB010008DB010008DB010008DB010008CF
:1001A000DB010008DB010008DB010008DFF80CD0F0
:1001B00000F02EF800480047310E0008200400200F
:1001C0000648804706480047FEE7FEE7FEE7FEE7F1
:1001D000FEE7FEE7FEE7FEE7FEE7FEE7250900088B
:1001E000AD01000830B50B46014600202022012455
:1001F00009E021FA02F59D4205D303FA02F5491BF5
:1002000004FA02F52844151EA2F10102F1DC30BD0A
:10021000064C074D06E0E06840F0010394E8070053
:1002200098471034AC42F6D3FFF7C4FF400E0008E5
:10023000600E000800BFFEE77047000000B587B001
:100240000121084600F05CF90121102000F068F956
:1002500000208DF81A0001208DF81B0002208DF877
:1002600019008DF818000002059005A91B4800F040
:1002700039F802208DF818004002059005A91748AA
:1002800000F030F807220A21144800F073F8072222
:100290000921124800F06EF84FF4E130019000207F
:1002A000ADF80800ADF80A00ADF80C00ADF810008C
:1002B0000C20ADF80E0001A9094800F023FC00F065
:1002C000C4F8012240F22551054800F0F6FB012157
:1002D000034800F0D9FB07B000BD00000000024059
:1002E00000100140F0B50A4600210023002400BFA1
:1002F0003DE0012505FA01F3156805EA03049C4277
:1003000034D105684F000326BE40B543056015791A
:100310004E00B5400668354305601579012D02D0C1
:100320001579022D16D185684F000326BE40B543CE
:10033000856055794E00B5408668354385604568CF
:1003400001268E40B5434560456896798E40B6B229
:1003500035434560C5684F000326BE40B543C560C0
:10036000D5794E00B540C6683543C560491C102993
:10037000BFD3F0BDF0B5002300244D07ED0E02FA07
:1003800005F3CE1000F1200555F826504E07F70E64
:100390000F26BE40B543CF1000F1200646F8275087
:1003A000CE1000F1200555F8265045EA0304CE1082
:1003B00000F1200545F82640F0BD4183704700BF9D
:1003C000FEE700001CB50121882000F099F84FF4E9
:1003D0008060009001208DF8040000208DF8060058
:1003E00001208DF8070000208DF8050069461348AC
:1003F000FFF778FF4FF40060009069460F48FFF761
:1004000071FF4FF48050009069460C48FFF76AFF77
:100410004FF40060009069460948FFF763FF4FF40E
:10042000806006491831088040000880400008803C
:1004300041100348FFF7C1FF1CBD0000001C024033
:10044000000C024000BFFEE7704708B54FF4A06003
:1004500000F04AF825208DF8000001208DF80100F9
:100460008DF802008DF80300684600F001F808BD21
:1004700070B5002100230F22C4781CB3174C2468E8
:1004800004F4E064C4F5E064C4F30721C1F104049A
:10049000E3B20A4144789C40E1B28478144021439D
:1004A0000C07210E0E4C05786155047804F01F05E9
:1004B0000124AC4005786D11AD0005F1E025C5F8CB
:1004C000004109E0047804F01F050124AC40054D0B
:1004D0000678761145F8264070BD00000CED00E06E
:1004E00000E400E080E100E002490143024A1160BB
:1004F000704700000000FA050CED00E070470000B6
:1005000029B1064A12680243044B1A6004E0034A08
:1005100012688243014B1A60704700003038024075
:1005200029B1064A12680243044B1A6004E0034AE8
:1005300012688243014B1A60704700004438024041
:10054000F0B5002100220024022500260223324FAC
:100550003F6807F00C0121B1042905D0082937D1E3
:1005600005E02E4F076036E02D4F076033E02A4F3D
:100570003F1F3F68C7F38056274F3F1F3F6807F074
:100580003F036EB1264FB7FBF3F7DFF88CC0ACF139
:10059000040CDCF800C0CCF3881C07FB0CF40CE066
:1005A0001E4FB7FBF3F7DFF870C0ACF1040CDCF8BA
:1005B00000C0CCF3881C07FB0CF4174F3F1F3F68AB
:1005C000C7F301477F1C7D00B4FBF5F7076002E02D
:1005D000124F076000BF00BF0F4F3F6807F0F001E8
:1005E0000909104F7A5C0768D74047600A4F3F6897
:1005F00007F4E051890A0B4F7A5C4768D74087605F
:10060000054F3F6807F46041490B064F7A5C476825
:10061000D740C760F0BD0000083802400024F40055
:1006200040787D0100000020704700000CB50020DC
:10063000019000904148006840F480303F490860D4
:1006400000BF3E48006800F4003000900198401C54
:100650000190009818B90198B0F5A04FF1D1374832
:10066000006800F4003010B10120009001E000208B
:1006700000900098012860D130484030006840F078
:1006800080502E49403108602D48006840F44040B9
:100690002B4908602948083000682849083108605B
:1006A0000846006840F4004008600846006840F4CE
:1006B000A05008602348091F0860081F006840F028
:1006C0008070091F086000BF1C48006800F00070BF
:1006D0000028F9D01A48006840F4803018490860B2
:1006E00000BF1748406800F480300028F9D0144853
:1006F000006840F400301249086000BF10484068AC
:1007000000F400300028F9D040F205700E4908606E
:100710000A480830006820F00300084908310860E2
:100720000846006840F00200086000BF0348083037
:10073000006800F00C000828F8D10CBD0038024019
:1007400000700040195A4007003C024010B513A049
:1007500000F04EFA4FF4E1311CA000F049FA24A059
:1007600000F046FA2FA000F043FA35A000F040FA5E
:100770003AA000F03DFA40A000F03AFA45A000F09F
:1007800037FA4BA000F034FA50A000F031FA56A02E
:1007900000F02EFA5BA000F02BFA10BD0D0A20200D
:1007A00020D5E2CAC7D2BBB8F6CDA8B9FDB4AEBF5A
:1007B000DACDA8D0C5D6B8C1EEBFD8D6C65247420A
:1007C000B2CAB5C6CAB5D1E9200A0000CAB9D3C3B6
:1007D00020205553415254312020B2CECAFDCEAA1A
:1007E000A3BA256420382D4E2D31200A00000000C8
:1007F000BFAAB7A2B0E5BDD3B5BDD6B8C1EEBAF3B6
:10080000BFD8D6C6524742B2CAB5C6D1D5C9ABA326
:10081000ACD6B8C1EEB6D4D3A6C8E7CFC2A3BA0A45
:1008200000000000202020D6B8C1EE2020202D2D71
:100830002D2D2D2D20B2CAB5C6D1D5C9AB200A00A9
:10084000202020202031202020202D2D2D2D2D2D49
:1008500020202020BAEC200A0000000020202020C8
:100860002032202020202D2D2D2D2D2D2020202028
:10087000C2CC200A000000002020202020332020AD
:1008800020202D2D2D2D2D2D20202020C0B6200AFA
:1008900000000000202020202034202020202D2DAA
:1008A0002D2D2D2D20202020BBC6200A0000000069
:1008B000202020202035202020202D2D2D2D2D2DD5
:1008C00020202020D7CF200A000000002020202058
:1008D0002036202020202D2D2D2D2D2D20202020B4
:1008E000C7E0200A00000000202020202037202020
:1008F00020202D2D2D2D2D2D20202020B0D7200A79
:1009000000000000202020202038202020202D2D35
:100910002D2D2D2D20202020C3F0200A00000000C6
:100920007047000010B51548006840F47000134986
:1009300008601348006840F0010011490860002079
:100940000F49083108600E4800680E4908400C49FC
:1009500008600D48091D0860081F006820F4802009
:10096000091F0860002006490C310860FFF75EFE91
:100970004FF0006001498039086010BD88ED00E04B
:1009800000380240FFFFF6FE1030002410B5374853
:1009900000F04CFA364908700846017835A000F09E
:1009A00027F9334800783138082859D2DFE800F0B9
:1009B000040E1A252F3A454E4FF4806031490880C5
:1009C0004000891E0880400008804CE04FF48060A1
:1009D0002C49891E08804000891C08804000891E1F
:1009E000088040E04FF480602649891E088040005E
:1009F00008804000891C088035E04FF48060214960
:100A00000880400008804000891E08802BE04FF4D9
:100A100080601C4908804000891E08804000891CB5
:100A2000088020E04FF480601649891E088040004D
:100A3000891C08804000088015E04FF4806011494F
:100A4000088040000880400008800CE04FF480607F
:100A50000C49891E0880400008804000088002E0A0
:100A6000FFF774FE00BF00BF10BD0000140000209F
:100A700010000020BDD3CAD5B5BDD7D6B7FBA3BAE9
:100A800025630A001A1C024021B1828942F40052F7
:100A9000828104E082894DF6FF731A40828170479B
:100AA00002460020B1F5007F00D100BF13880B4043
:100AB0000BB1012000E000207047F0B50346002490
:100AC00000260025002040F66A17B94200D100BF79
:100AD0001846C1F3421401F01F06012707FA06F574
:100AE000012C01D10C3004E0022C01D1103000E0C7
:100AF00014301AB107682F43076002E00768AF435C
:100B00000760F0BD2DE9FF4705460E460024A146CB
:100B100000BFA046B08900B100BF2C8A24F4405425
:100B2000F08804432C82AC8941F20C608443B08885
:100B300031890843718908430443AC81AC8A24F4A9
:100B40004074B0890443AC826846FFF7F9FC204842
:100B5000854202D01F48854202D1DDF80C9001E0A9
:100B6000DDF80890A88900F4004040B109EBC90005
:100B700000EB091031684900B0FBF1F707E009EB21
:100B8000C90000EB091031688900B0FBF1F764205F
:100B9000B7FBF0F004012009642101FB1078A8895B
:100BA00000F4004040B1322000EBC800B0FBF1F08F
:100BB00000F00700044308E0322000EB0810642135
:100BC000B0FBF1F000F00F0004432C81BDE8FF877B
:100BD000001001400014014001468888C0F308005D
:100BE0007047C1F308028280704700BFFEE7000033
:100BF0000FB4054B10B503A9044A029800F018F889
:100C000010BC5DF814FB0000090E0008180000205D
:100C100002E008C8121F08C1002AFAD170477047C5
:100C2000002001E001C1121F002AFBD17047000023
:100C30002DE9FF4F8BB09A460F460546002606E089
:100C400025280BD052460D9990476D1C761C2878AC
:100C50000028F5D10FB03046BDE8F08F0024A04643
:100C60000122604900E0044315F8013F203B02FAED
:100C700003F00842F7D128782E2817D115F8010F74
:100C800044F004042A280ED06FF02F022878A0F137
:100C9000300109290AD808EB880102EB410100EB79
:100CA00001086D1CF2E757F8048B6D1C2878692841
:100CB0003ED006DC0028CDD063280BD0642804D1B8
:100CC00036E0732810D075284BD052460D999047C6
:100CD000761C85E017F8040B8DF8000000208DF8D5
:100CE0000100E946012003E057F8049B4FF0FF3074
:100CF00061074FF0000401D40AE0641C44450DDA9A
:100D00008442FADB19F804100029F6D106E0641CCD
:100D10008442FCDB19F804100029F8D1264404E0D1
:100D200019F8010B52460D999047641EF8D257E00E
:100D300001CF4FF00A0B002802DA40422D2102E0D9
:100D4000210504D52B218DF82410012103E0E107B2
:100D500005D02021F7E70DF1200908910CE00021D2
:100D6000F9E701CF4FF00A0BF9E75946FFF73AFAD6
:100D700001F1300209F8012D0028F6D1ADEB090090
:100D800000F1200B600701D44FF00108D84502DDC7
:100D9000A8EB0B0000E000208046002406E009A834
:100DA0005246005D0D999047641C761C0898844259
:100DB000F5DB04E0302052460D999047761CB8F1DF
:100DC0000001A8F10108F5DC05E019F8010B524615
:100DD0000D999047761CBBF10001ABF1010BF4DCDF
:100DE0006D1C34E70928010010B5044600BF20211E
:100DF0000448FFF755FE0028F9D00248FFF7ECFE43
:100E000010BD00000010014070B504460D46E1B26F
:100E10000548FFF7E6FE00BF80210348FFF740FECC
:100E20000028F9D0204670BD00100140FFF7DCBF5C
:100E3000FFF7C8FAFFF702FAFFF788FC00BFFEE7EA
:100E4000600E0008000000201C000000100C0008CC
:100E50007C0E00081C00002004040000200C000888
:100E60000000000001020304010203040607080950
:0C0E700000000000000000000000000076
:04000005080001AD41
:00000001FF
