:020000040800F2
:1000000030040020C1010008FD0500087305000848
:10001000F9050008090200080F0C000800000000A4
:10002000000000000000000000000000E1070008E0
:100030000D02000800000000B50600084509000890
:10004000DB010008DB010008DB010008DB01000820
:10005000DB010008DB010008B9020008DB01000831
:10006000DB010008DB010008DB010008DB01000800
:10007000DB010008DB010008DB010008DB010008F0
:10008000DB010008DB010008DB010008DB010008E0
:10009000DB010008DB010008DB010008DB010008D0
:1000A000DB010008DB010008DB010008DB010008C0
:1000B000DB010008DB010008DB010008DB010008B0
:1000C000DB010008DB010008DB010008DB010008A0
:1000D000DB010008350A0008DB010008DB0100082D
:1000E000DD020008DB010008DB010008DB0100087D
:1000F000DB010008DB010008DB010008DB01000870
:10010000DB010008DB010008DB010008DB0100085F
:10011000DB010008DB010008DB010008DB0100084F
:10012000DB010008DB010008DB010008DB0100083F
:10013000DB010008DB010008DB010008DB0100082F
:10014000DB010008DB010008DB010008DB0100081F
:10015000DB010008DB010008DB010008DB0100080F
:10016000DB010008DB010008DB010008DB010008FF
:10017000DB010008DB010008DB010008DB010008EF
:10018000DB010008DB010008DB010008DB010008DF
:10019000DB010008DB010008DB010008DB010008CF
:1001A000DB010008DB010008DB010008DFF80CD0F0
:1001B00000F018F8004800470D0D0008300400203A
:1001C0000648804706480047FEE7FEE7FEE7FEE7F1
:1001D000FEE7FEE7FEE7FEE7FEE7FEE7B5090008FB
:1001E000AD010008064C074D06E0E06840F0010351
:1001F00094E8070098471034AC42F6D3FFF7DAFFD3
:10020000800D0008A00D000800BFFEE77047000049
:1002100000B587B00121084600F04EFA01211020F8
:1002200000F05AFA00208DF81A0001208DF81B000A
:1002300002208DF819008DF818000002059005A91C
:100240001B4800F029F902208DF8180040020590A3
:1002500005A9174800F020F907220A21144800F0E8
:1002600063F907220921124800F05EF94FF4E130EA
:1002700001900020ADF80800ADF80A00ADF80C00C0
:10028000ADF810000C20ADF80E0001A9094800F0EF
:100290004BFC00F0B4F9012240F22551054800F072
:1002A0001EFC0121034800F0D7FB07B000BD000091
:1002B000000002400010014010B5012000F028F8B5
:1002C000012805D10448006880F480600249086074
:1002D000012000F017F810BD141C024010B54FF4B7
:1002E000005000F015F8012805D10548006880F499
:1002F0000060034908604FF4005000F003F810BD9F
:10030000141C02400149086070470000143C014081
:1003100001460020034A12680A400AB1012000E0A9
:1003200000207047143C0140002123498279002AB3
:100330003AD00A46126803689A430B461A600A1DAF
:10034000126803689A430B1D1A60027911440A6807
:1003500003681A430A60184A0832126803689A430D
:10036000154B08331A601A1D126803689A43124B22
:100370000C331A604279102A0ED11A1F12680368D2
:100380001A430D4B08331A601A1D126803681A438A
:10039000094B0C331A600DE00749427911440A6891
:1003A00003681A430A6005E0027911440A68036889
:1003B0009A430A6070470000003C01401FB50121CC
:1003C000084600F079F90121880300F085F900F072
:1003D00041F80120029000208DF80C008DF80F00EC
:1003E00002A91A4800F058F80021084600F0FAF96E
:1003F0000120009000208DF8040008208DF80500F1
:1004000001208DF806006846FFF78EFF4FF400507C
:10041000029000208DF80C008DF80F0002A90C4806
:1004200000F03AF80D21022000F0DCF94FF4005002
:10043000009000208DF8040008208DF805000120B0
:100440008DF806006846FFF76FFF1FBD00000240F1
:100450000008024008B54FF4A06000F021F9062022
:100460008DF8000000208DF801008DF802000120B9
:100470008DF80300684600F0D7F828208DF80000BA
:1004800000208DF8010001208DF802008DF8030096
:10049000684600F0C9F808BDF0B50A4600210023FF
:1004A000002400BF3DE0012505FA01F3156805EAC7
:1004B00003049C4234D105684F000326BE40B54377
:1004C000056015794E00B54006683543056015791D
:1004D000012D02D01579022D16D185684F00032613
:1004E000BE40B543856055794E00B54086683543BA
:1004F0008560456801268E40B5434560456896791C
:100500008E40B6B235434560C5684F000326BE40F5
:10051000B543C560D5794E00B540C6683543C56062
:10052000491C1029BFD3F0BDF0B5002300244D07AE
:10053000ED0E02FA05F3CE1000F1200555F8265015
:100540004E07F70E0F26BE40B543CF1000F1200630
:1005500046F82750CE1000F1200555F8265045EA00
:100560000304CE1000F1200545F82640F0BD41837C
:10057000704700BFFEE700001CB50121882000F095
:100580009BF84FF48060009001208DF8040000205B
:100590008DF8060001208DF8070000208DF8050079
:1005A00069461348FFF778FF4FF4006000906946F2
:1005B0000F48FFF771FF4FF48050009069460C48D8
:1005C000FFF76AFF4FF40060009069460948FFF7A3
:1005D00063FF4FF4806006491831088040000880AE
:1005E0004000088041100348FFF7C1FF1CBD000018
:1005F000001C0240000C024000BFFEE7704708B537
:100600004FF4A06000F04CF825208DF80000012088
:100610008DF8010000208DF8020001208DF8030004
:10062000684600F001F808BD70B5002100230F22D4
:10063000C4781CB3174C246804F4E064C4F5E06487
:10064000C4F30721C1F10404E3B20A4144789C4099
:10065000E1B28478144021430C07210E0E4C05783A
:100660006155047804F01F050124AC4005786D1134
:10067000AD0005F1E025C5F8004109E0047804F07B
:100680001F050124AC40054D0678761145F826403B
:1006900070BD00000CED00E000E400E080E100E04F
:1006A00002490143024A1160704700000000FA0548
:1006B0000CED00E07047000029B1064A12680243C1
:1006C000044B1A6004E0034A12688243014B1A602B
:1006D000704700003038024029B1064A12680243D0
:1006E000044B1A6004E0034A12688243014B1A600B
:1006F0007047000044380240F0B500210022002479
:10070000022500260223324F3F6807F00C0121B179
:10071000042905D0082937D105E02E4F076036E0BF
:100720002D4F076033E02A4F3F1F3F68C7F38056C5
:10073000274F3F1F3F6807F03F036EB1264FB7FBBF
:10074000F3F7DFF88CC0ACF1040CDCF800C0CCF39C
:10075000881C07FB0CF40CE01E4FB7FBF3F7DFF827
:1007600070C0ACF1040CDCF800C0CCF3881C07FBB3
:100770000CF4174F3F1F3F68C7F301477F1C7D00F4
:10078000B4FBF5F7076002E0124F076000BF00BF3F
:100790000F4F3F6807F0F0010909104F7A5C0768B6
:1007A000D74047600A4F3F6807F4E051890A0B4F72
:1007B0007A5C4768D7408760054F3F6807F460411F
:1007C000490B064F7A5C4768D740C760F0BD000010
:1007D000083802400024F40040787D011400002015
:1007E0007047000030B500228B071C0F0F2303FA5F
:1007F00004F20B4B8C1053F824309343084C8D10AB
:1008000044F8253023468C1053F824308C07240FED
:1008100000FA04F42343024C8D1044F8253030BD17
:10082000083801400CB50020019000904148006854
:1008300040F480303F49086000BF3E48006800F443
:10084000003000900198401C0190009818B9019860
:10085000B0F5A04FF1D13748006800F4003010B176
:100860000120009001E0002000900098012860D154
:1008700030484030006840F080502E4940310860D8
:100880002D48006840F440402B4908602948083052
:1008900000682849083108600846006840F40040B4
:1008A00008600846006840F4A05008602348091F0B
:1008B0000860081F006840F08070091F086000BFD2
:1008C0001C48006800F000700028F9D01A48006841
:1008D00040F480301849086000BF1748406800F4B1
:1008E00080300028F9D01448006840F400301249E4
:1008F000086000BF1048406800F400300028F9D0BC
:1009000040F205700E4908600A480830006820F07F
:1009100003000849083108600846006840F00200FA
:10092000086000BF03480830006800F00C00082889
:10093000F8D10CBD0038024000700040195A400741
:10094000003C024010B500F069F810BD30B5164803
:1009500000684FF47A72B0FBF2F1481EB0F1807F6C
:1009600001D301201BE0481E4FF0E02250615017D8
:100970000F22002807DA13071D0E0C4B00F00F049E
:10098000241F1D5503E013071C0E094B1C5400BF08
:1009900000204FF0E022906107201061002008B194
:1009A00000BFFEE730BD00000000002018ED00E0B1
:1009B00000E400E010B51548006840F470001349E9
:1009C00008601348006840F00100114908600020E9
:1009D0000F49083108600E4800680E4908400C496C
:1009E00008600D48091D0860081F006820F4802079
:1009F000091F0860002006490C310860FFF712FF4C
:100A00004FF0006001498039086010BD88ED00E0BA
:100A100000380240FFFFF6FE103000240448006852
:100A200020B103480068401E01490860704700007B
:100A30002400002010B540F22551064800F025F8AA
:100A400038B1044800F0DAF8C4B22146014800F099
:100A5000DAF810BD0010014021B1828942F4005241
:100A6000828104E082894DF6FF731A4082817047CB
:100A700002460020B1F5007F00D100BF13880B4073
:100A80000BB1012000E00020704770B50246002441
:100A900000230025002040F66A16B14200D100BFB5
:100AA000C1F3421501F01F03012606FA03F3012DDD
:100AB00002D19689334006E0022D02D1168A3340D6
:100AC00001E0968A33400C12012606FA04F41688D7
:100AD000344013B10CB1012000E0002070BDF0B52E
:100AE0000346002400260025002040F66A17B9427C
:100AF00000D100BF1846C1F3421401F01F060127C0
:100B000007FA06F5012C01D10C3004E0022C01D1CA
:100B1000103000E014301AB107682F43076002E07C
:100B20000768AF430760F0BD2DE9FF4705460E4655
:100B30000024A14600BFA046B08900B100BF2C8AA6
:100B400024F44054F08804432C82AC8941F20C60B8
:100B50008443B08831890843718908430443AC81D8
:100B6000AC8A24F44074B0890443AC826846FFF731
:100B7000C3FD2048854202D01F48854202D1DDF8DE
:100B80000C9001E0DDF80890A88900F4004040B125
:100B900009EBC90000EB091031684900B0FBF1F71F
:100BA00007E009EBC90000EB091031688900B0FBD0
:100BB000F1F76420B7FBF0F004012009642101FB88
:100BC0001078A88900F4004040B1322000EBC80042
:100BD000B0FBF1F000F00700044308E0322000EB26
:100BE00008106421B0FBF1F000F00F0004432C81E9
:100BF000BDE8FF87001001400014014001468888CD
:100C0000C0F308007047C1F308028280704700BF3C
:100C1000FEE770B504460D4629462046FFF7F3FF70
:100C200000BF80212046FFF723FF0028F9D070BDC8
:100C30002DE9F04105460C46260AE7B23146284622
:100C4000FFF7E1FF00BF80212846FFF711FF0028D2
:100C5000F9D039462846FFF7D6FF00BF8021284645
:100C6000FFF706FF0028F9D0BDE8F08170B5064611
:100C70000C46002500BF615D3046FFF7CAFF6D1CC2
:100C8000605D0028F7D100BF40213046FFF7F0FE3D
:100C90000028F9D070BD0000014A024900F013B8E5
:100CA000E90C00082800002002E008C8121F08C153
:100CB000002AFAD170477047002001E001C1121FDD
:100CC000002AFBD170472DE9F04116460F46044635
:100CD000002503E03946B047641C6D1C20780028CD
:100CE000F8D12846BDE8F08170B504460D46E1B262
:100CF0000548FFF788FF00BF80210348FFF7B8FED3
:100D00000028F9D0204670BD00100140FFF734FCE8
:100D1000FFF754FBFFF71AFEFFF77AFA4121084864
:100D2000FFF777FF4FF6FF710548FFF781FF05A139
:100D30000348FFF79BFF09A0FFF7AEFF00BFFEE7E8
:100D40000010014053544D3332463432392055732C
:100D5000617274206578616D706C65000D0A207594
:100D600073617274207072696E74662066756E634A
:100D700074696F6E2074657374200D0A00000000A2
:100D8000A00D0008000000202C000000A80C0008A6
:100D9000CC0D00082C00002004040000B80C000852
:100DA0000095BA0A000000000000000001020304E0
:100DB0000607080900000000010203040102030401
:0C0DC00006070809000000000000000009
:04000005080001AD41
:00000001FF
