:020000040800F2
:1000000028180020C1010008550A0008F707000859
:100010007D0800085902000847120008000000008F
:10002000000000000000000000000000350C000887
:100030007D04000800000000090B0008690F00089B
:10004000DB010008DB010008DB010008DB01000820
:10005000DB010008DB0100083D050008DB010008AA
:10006000DB010008DB010008DB010008DB01000800
:10007000DB010008DB010008DB010008DB010008F0
:10008000DB010008DB010008DB010008DB010008E0
:10009000DB010008DB010008DB010008DB010008D0
:1000A000DB010008DB010008DB010008DB010008C0
:1000B000DB010008DB010008DB010008DB010008B0
:1000C000DB010008DB010008DB010008DB010008A0
:1000D000DB010008D50F0008DB010008DB01000888
:1000E00061050008DB010008DB010008DB010008F6
:1000F000DB010008DB010008DB010008DB01000870
:10010000DB010008DB010008DB010008DB0100085F
:10011000DB010008DB010008DB010008DB0100084F
:10012000DB010008DB010008DB010008DB0100083F
:10013000DB010008DB010008DB010008DB0100082F
:10014000DB010008DB010008DB010008DB0100081F
:10015000DB010008DB010008DB010008DB0100080F
:10016000DB010008DB010008DB010008DB010008FF
:10017000DB010008DB010008DB010008DB010008EF
:10018000DB010008DB010008DB010008DB010008DF
:10019000DB010008DB010008DB010008DB010008CF
:1001A000DB010008DB010008DB010008DFF80CD0F0
:1001B00000F02EF80048004711150008281800200C
:1001C0000648804706480047FEE7FEE7FEE7FEE7F1
:1001D000FEE7FEE7FEE7FEE7FEE7FEE76D0F00083D
:1001E000AD01000830B50B46014600202022012455
:1001F00009E021FA02F59D4205D303FA02F5491BF5
:1002000004FA02F52844151EA2F10102F1DC30BD0A
:10021000064C074D06E0E06840F0010394E8070053
:1002200098471034AC42F6D3FFF7C4FF101600080D
:100230003016000810B5034607E018680C68A042A5
:1002400001D0002010BD1B1D091D1000A2F10104EA
:10025000A2B2F2D10120F5E700BFFEE721B10268AA
:1002600042F00102026003E0026822F00102026033
:1002700070470000016821F0010101600021016068
:1002800041608160C1600161212141614A49884228
:1002900004D13D21484A103A91608CE0464918311A
:1002A000884205D14FF47461434A103A916082E06C
:1002B00041493031884205D14FF474113E4A103A19
:1002C000916078E03C494831884205D14FF0746133
:1002D000394A103A91606EE037496031884204D162
:1002E0003649354A103AD16065E033497831884261
:1002F00004D13349304A103AD1605CE02E49903144
:10030000884204D12F492C4A103AD16053E02A493F
:10031000A831884205D14FF03D51274A103AD160AB
:1003200049E02949884204D13D21274A083A116011
:1003300041E025491831884205D14FF47461224AC1
:10034000083A116037E020493031884205D14FF436
:1003500074111D4A083A11602DE01B49483188424A
:1003600005D14FF07461184A083A116023E016492C
:100370006031884204D11149134A121F11601AE0FA
:1003800011497831884204D10D490F4A121F11607A
:1003900011E00D499031884204D10A490A4A121FDE
:1003A000116008E00849A831884204D14FF03D515E
:1003B000054A121F11607047106002403D00002086
:1003C000400F002000003D20106402400146002044
:1003D0000A6802F001020AB1012000E00020704723
:1003E00030B503460A46002000240B4DAB4201D233
:1003F0000A4901E00849103902F000550DB14C6876
:1004000000E00C68064D2C4004EA02050DB1012005
:1004100000E0002030BD0000106402400060024097
:100420007D0F7D0F10B500220268134B1A40CC6877
:100430000B6823434C6923438C692343CC692343D2
:100440000C6A23434C6A23438C6A23434C6B23433B
:100450008C6B23431A430260426922F00702D1E900
:100460000B3423431A4342610B6943604B6883603A
:100470008B68C36010BD00003F801CF07047000017
:1004800000B587B00121084600F040FB0121102093
:1004900000F04CFB00208DF81A0001208DF81B00A5
:1004A00002208DF819008DF818000002059005A9AA
:1004B0001B4800F033F902208DF818004002059027
:1004C00005A9174800F02AF907220A21144800F06C
:1004D0006DF907220921124800F068F94FF4E13064
:1004E00001900020ADF80800ADF80A00ADF80C004E
:1004F000ADF810000C20ADF80E0001A9094800F07D
:100500002FFE00F0A8FA012240F22551054800F024
:1005100001FE0121034800F0DBFD07B000BD000033
:10052000000002400010014001B502E00098401EAA
:10053000009000980028F9D108BD000010B50120F6
:1005400000F028F8012805D10448006880F4806094
:1005500002490860012000F017F810BD141C024089
:1005600010B54FF4005000F015F8012805D10548EA
:10057000006880F40060034908604FF4005000F008
:1005800003F810BD141C02400149086070470000C8
:10059000143C014001460020034A12680A400AB197
:1005A000012000E000207047143C01400021234955
:1005B0008279002A3AD00A46126803689A430B46A9
:1005C0001A600A1D126803689A430B1D1A600279AB
:1005D00011440A6803681A430A60184A083212680C
:1005E00003689A43154B08331A601A1D1268036892
:1005F0009A43124B0C331A604279102A0ED11A1FFB
:10060000126803681A430D4B08331A601A1D1268EA
:1006100003681A43094B0C331A600DE0074942790D
:1006200011440A6803681A430A6005E0027911441C
:100630000A6803689A430A6070470000003C014062
:100640001FB50121084600F061FA0121880300F07E
:100650006DFA00F041F80120029000208DF80C00A6
:100660008DF80F0002A91A4800F058F8002108463A
:1006700000F0E2FA0120009000208DF8040008202C
:100680008DF8050001208DF806006846FFF78EFF03
:100690004FF40050029000208DF80C008DF80F00F0
:1006A00002A90C4800F03AF80D21022000F0C4FA2B
:1006B0004FF40050009000208DF8040008208DF8C1
:1006C000050001208DF806006846FFF76FFF1FBD8B
:1006D000000002400008024008B54FF4A06000F09E
:1006E00009FA06208DF8000000208DF801008DF831
:1006F000020001208DF80300684600F0BFF92820B1
:100700008DF8000000208DF8010001208DF8020016
:100710008DF80300684600F0B1F908BDF0B50A464F
:1007200000210023002400BF3DE0012505FA01F36C
:10073000156805EA03049C4234D105684F0003267E
:10074000BE40B543056015794E00B5400668354397
:1007500005601579012D02D01579022D16D1856815
:100760004F000326BE40B543856055794E00B54025
:10077000866835438560456801268E40B5434560EF
:10078000456896798E40B6B235434560C5684F00DE
:100790000326BE40B543C560D5794E00B540C66856
:1007A0003543C560491C1029BFD3F0BDF0B5002307
:1007B00000244D07ED0E02FA05F3CE1000F12005DE
:1007C00055F826504E07F70E0F26BE40B543CF1002
:1007D00000F1200646F82750CE1000F1200555F80C
:1007E000265045EA0304CE1000F1200545F82640C6
:1007F000F0BD4183704700BFFEE700001CB501213A
:10080000882000F083F94FF48060009001208DF87B
:10081000040000208DF8060001208DF8070000205C
:100820008DF8050069461348FFF778FF4FF4006024
:10083000009069460F48FFF771FF4FF48050009019
:1008400069460C48FFF76AFF4FF400600090694664
:100850000948FFF763FF4FF48060064918310880AC
:10086000400008804000088041100348FFF7C1FFA6
:100870001CBD0000001C0240000C024000BFFEE74F
:1008800030B58FB00121880500F040F93D48FFF7F1
:10089000F1FC00BF3B48FFF799FD0128FAD000208A
:1008A0000090394801903948029080200390202020
:1008B00004900001059040000690800007908000A1
:1008C0000890002009904FF440300A9000200B90CF
:1008D00003200C9000200D900E9069462948FFF7E8
:1008E000A1FD01212748FFF7B9FC42F2107500BFB6
:1008F0002448FFF76BFD20B9281EA5F101018DB238
:10090000F6DCDDB919E04FF4806021490880400031
:10091000891E0880400008806FF07F40FFF704FECA
:100920004FF480601A49891E08804000088040000A
:1009300008806FF07F40FFF7F7FDE4E700BF15493F
:100940001048FFF74DFD0028F9D020220F490E482E
:10095000FFF770FC04464CB94FF480600C490880E6
:100960004000891E08804000088009E04FF4806044
:100970000749891E0880400008804000891C0880C3
:100980000FB030BD10640240901500081C0000201C
:100990001A1C02402000001010B590B001218805FB
:1009A00000F0B4F82848FFF765FC00BF2648FFF7C1
:1009B0000DFD0128FAD04FF000600190234802900D
:1009C000234803904020049041F288300590002095
:1009D00006904FF4806007900020089009900A90DC
:1009E0004FF400300B9000200C9003200D9000205D
:1009F0000E900F9001A91448FFF714FD0121124831
:100A0000FFF72CFC00BF1048FFF7E0FC0128FAD1EB
:100A100000240DE041F28530844203DD0A200C49B8
:100A2000085503E041200A49085500BF601C84B204
:100A300041F288308442EDDB012280210348001F0F
:100A400000F052FB10B010BDB86402400410014029
:100A50009C000020704708B54FF4A06000F04AF8F1
:100A600025208DF8000001208DF801008DF802008E
:100A70008DF80300684600F001F808BD70B500214C
:100A800000230F22C4781CB3174C246804F4E064DC
:100A9000C4F5E064C4F30721C1F10404E3B20A41E0
:100AA00044789C40E1B28478144021430C07210E25
:100AB0000E4C05786155047804F01F050124AC4004
:100AC00005786D11AD0005F1E025C5F8004109E09C
:100AD000047804F01F050124AC40054D067876111A
:100AE00045F8264070BD00000CED00E000E400E099
:100AF00080E100E002490143024A116070470000B2
:100B00000000FA050CED00E07047000029B1064A2C
:100B100012680243044B1A6004E0034A12688243DD
:100B2000014B1A60704700003038024029B1064A74
:100B300012680243044B1A6004E0034A12688243BD
:100B4000014B1A607047000044380240F0B50021A4
:100B500000220024022500260223324F3F6807F0BE
:100B60000C0121B1042905D0082937D105E02E4F09
:100B7000076036E02D4F076033E02A4F3F1F3F6884
:100B8000C7F38056274F3F1F3F6807F03F036EB102
:100B9000264FB7FBF3F7DFF88CC0ACF1040CDCF8A0
:100BA00000C0CCF3881C07FB0CF40CE01E4FB7FB15
:100BB000F3F7DFF870C0ACF1040CDCF800C0CCF344
:100BC000881C07FB0CF4174F3F1F3F68C7F3014712
:100BD0007F1C7D00B4FBF5F7076002E0124F076051
:100BE00000BF00BF0F4F3F6807F0F0010909104F29
:100BF0007A5C0768D74047600A4F3F6807F4E051C6
:100C0000890A0B4F7A5C4768D7408760054F3F6879
:100C100007F46041490B064F7A5C4768D740C760CC
:100C2000F0BD0000083802400024F40040787D0147
:100C3000000000207047000030B500228B071C0F19
:100C40000F2303FA04F20B4B8C1053F82430934318
:100C5000084C8D1044F8253023468C1053F824306E
:100C60008C07240F00FA04F42343024C8D1044F83F
:100C7000253030BD083801400CB5002001900090AF
:100C80004148006840F480303F49086000BF3E485A
:100C9000006800F4003000900198401C019000981A
:100CA00018B90198B0F5A04FF1D13748006800F4A9
:100CB000003010B10120009001E000200090009869
:100CC000012860D130484030006840F080502E4903
:100CD000403108602D48006840F440402B490860CE
:100CE000294808300068284908310860084600682B
:100CF00040F4004008600846006840F4A0500860D6
:100D00002348091F0860081F006840F08070091F11
:100D1000086000BF1C48006800F000700028F9D08F
:100D20001A48006840F480301849086000BF17482E
:100D3000406800F480300028F9D01448006840F47E
:100D400000301249086000BF1048406800F40030CD
:100D50000028F9D040F205700E4908600A480830B2
:100D6000006820F003000849083108600846006860
:100D700040F00200086000BF03480830006800F03F
:100D80000C000828F8D10CBD00380240007000406B
:100D9000195A4007003C024010B513A000F098FA21
:100DA0004FF4E1311BA000F093FA23A000F090FA79
:100DB0002EA000F08DFA34A000F08AFA39A000F0DD
:100DC00087FA3FA000F084FA44A000F081FA4AA01C
:100DD00000F07EFA4FA000F07BFA55A000F078FA00
:100DE0005AA000F075FA10BDD5E2CAC7D2BBB8F65A
:100DF000CDA8B9FDB4AEBFDACDA8D0C5D6B8C1EE86
:100E0000BFD8D6C6524742B2CAB5C6CAB5D1E90A9A
:100E100000000000CAB9D3C32020555341525431B9
:100E20002020B2CECAFDCEAAA3BA256420382D4E0A
:100E30002D31200A00000000BFAAB7A2B0E5BDD343
:100E4000B5BDD6B8C1EEBAF3BFD8D6C6524742B286
:100E5000CAB5C6D1D5C9ABA3ACD6B8C1EEB6D4D34A
:100E6000A6C8E7CFC2A3BA0A00000000202020D6FF
:100E7000B8C1EE2020202D2D2D2D2D2D20B2CAB54C
:100E8000C6D1D5C9AB200A00202020202031202047
:100E900020202D2D2D2D2D2D20202020BAEC200AB4
:100EA00000000000202020202032202020202D2D96
:100EB0002D2D2D2D20202020C2CC200A0000000046
:100EC000202020202033202020202D2D2D2D2D2DC1
:100ED00020202020C0B6200A000000002020202072
:100EE0002034202020202D2D2D2D2D2D20202020A0
:100EF000BBC6200A00000000202020202035202032
:100F000020202D2D2D2D2D2D20202020D7CF200A43
:100F100000000000202020202036202020202D2D21
:100F20002D2D2D2D20202020C7E0200A00000000BC
:100F3000202020202037202020202D2D2D2D2D2D4C
:100F400020202020B0D7200A0000000020202020F0
:100F50002038202020202D2D2D2D2D2D202020202B
:100F6000C3F0200A000000007047000010B51548CB
:100F7000006840F47000134908601348006840F0AE
:100F800001001149086000200F49083108600E482F
:100F900000680E4908400C4908600D48091D0860AA
:100FA000081F006820F48020091F086000200649FF
:100FB0000C310860FFF760FE4FF000600149803996
:100FC000086010BD88ED00E000380240FFFFF6FE2B
:100FD0001030002410B5374800F098FA36490870F0
:100FE0000846017835A000F073F9334800783138AD
:100FF000082859D2DFE800F0040E1A252F3A454E92
:101000004FF48060314908804000891E088040000C
:1010100008804CE04FF480602C49891E0880400015
:10102000891C08804000891E088040E04FF48060E1
:101030002649891E0880400008804000891C0880DD
:1010400035E04FF48060214908804000088040006E
:10105000891E08802BE04FF480601C490880400006
:10106000891E08804000891C088020E04FF48060C1
:101070001649891E08804000891C088040000880AD
:1010800015E04FF48060114908804000088040005E
:1010900008800CE04FF480600C49891E08804000F5
:1010A00008804000088002E0FFF776FE00BF00BF26
:1010B00010BD00001400002010000020BDD3CAD5D0
:1010C000B5BDD7D6B7FBA3BA25630A001A1C0240E8
:1010D00021B1828942F40052828104E082894DF676
:1010E000FF731A40828170471AB1838A0B4383824F
:1010F00002E0838A8B438382704702460020B1F569
:10110000007F00D100BF13880B400BB1012000E02D
:1011100000207047F0B5034600240026002500207B
:1011200040F66A17B94200D100BF1846C1F3421415
:1011300001F01F06012707FA06F5012C01D10C303A
:1011400004E0022C01D1103000E014301AB107681D
:101150002F43076002E00768AF430760F0BD00005F
:101160002DE9FF4705460E460024A14600BFA046D4
:10117000B08900B100BF2C8A24F44054F0880443A5
:101180002C82AC8941F20C608443B08831890843D9
:10119000718908430443AC81AC8A24F44074B0895B
:1011A0000443AC826846FFF7D1FC2048854202D058
:1011B0001F48854202D1DDF80C9001E0DDF808906F
:1011C000A88900F4004040B109EBC90000EB091008
:1011D00031684900B0FBF1F707E009EBC90000EB0B
:1011E000091031688900B0FBF1F76420B7FBF0F01B
:1011F00004012009642101FB1078A88900F4004053
:1012000040B1322000EBC800B0FBF1F000F0070065
:10121000044308E0322000EB08106421B0FBF1F039
:1012200000F00F0004432C81BDE8FF87001001404F
:101230000014014001468888C0F308007047C1F3DC
:1012400008028280704700BFFEE770B504460D4675
:1012500029462046FFF7F3FF00BF80212046FFF715
:101260004CFF0028F9D070BD2DE9F04105460C4631
:10127000260AE7B231462846FFF7E1FF00BF80218A
:101280002846FFF73AFF0028F9D039462846FFF7ED
:10129000D6FF00BF80212846FFF72FFF0028F9D096
:1012A000BDE8F08170B506460C46002500BF615DC3
:1012B0003046FFF7CAFF6D1C605D0028F7D100BF04
:1012C00040213046FFF719FF0028F9D070BD00001B
:1012D0000FB4054B10B503A9044A029800F018F8A2
:1012E00010BC5DF814FB0000E91400081800002091
:1012F00002E008C8121F08C1002AFAD170477047DF
:10130000002001E001C1121F002AFBD1704700003C
:101310002DE9FF4F8BB09A460F460546002606E0A2
:1013200025280BD052460D9990476D1C761C2878C5
:101330000028F5D10FB03046BDE8F08F0024A0465C
:101340000122604900E0044315F8013F203B02FA06
:1013500003F00842F7D128782E2817D115F8010F8D
:1013600044F004042A280ED06FF02F022878A0F150
:10137000300109290AD808EB880102EB410100EB92
:1013800001086D1CF2E757F8048B6D1C287869285A
:101390003ED006DC0028CDD063280BD0642804D1D1
:1013A00036E0732810D075284BD052460D999047DF
:1013B000761C85E017F8040B8DF8000000208DF8EE
:1013C0000100E946012003E057F8049B4FF0FF308D
:1013D00061074FF0000401D40AE0641C44450DDAB3
:1013E0008442FADB19F804100029F6D106E0641CE7
:1013F0008442FCDB19F804100029F8D1264404E0EB
:1014000019F8010B52460D999047641EF8D257E027
:1014100001CF4FF00A0B002802DA40422D2102E0F2
:10142000210504D52B218DF82410012103E0E107CB
:1014300005D02021F7E70DF1200908910CE00021EB
:10144000F9E701CF4FF00A0BF9E75946FEF7CAFE5C
:1014500001F1300209F8012D0028F6D1ADEB0900A9
:1014600000F1200B600701D44FF00108D84502DDE0
:10147000A8EB0B0000E000208046002406E009A84D
:101480005246005D0D999047641C761C0898844272
:10149000F5DB04E0302052460D999047761CB8F1F8
:1014A0000001A8F10108F5DC05E019F8010B52462E
:1014B0000D999047761CBBF10001ABF1010BF4DCF8
:1014C0006D1C34E70928010010B5044600BF202137
:1014D0000448FFF712FE0028F9D00248FFF7AAFEE1
:1014E00010BD00000010014070B504460D46E1B289
:1014F0000548FFF7A4FE00BF80210348FFF7FDFD6C
:101500000028F9D0204670BD00100140FFF7DCBF75
:10151000FFF774F9FFF794F8FEF7B2FFFFF7B0F9A1
:10152000FFF73AFA41210B48FFF78FFE4FF6FF71A4
:101530000848FFF799FE08A10648FFF7B3FE0DA083
:10154000FFF7C6FE11A0FFF7C3FEFFF725FC00BFA3
:10155000FEE7000000100140D2B0BBF053544D3301
:101560003246343239B4AEBFDACDA8D0C5C0FDB3EF
:10157000CC0A0000B4AEBFDACDA8D0C57072696ED7
:101580007466BAAFCAFDB2E2CAD40A000A0000000B
:1015900004030201080706050C0B0A09100F0E0DC3
:1015A00014131211181716151C1B1A19201F1E1DB3
:1015B00024232221282726252C2B2A29302F2E2DA3
:1015C00034333231383736353C3B3A39403F3E3D93
:1015D00044434241484746454C4B4A49504F4E4D83
:1015E00054535251585756555C5B5A59605F5E5D73
:1015F00064636261686766656C6B6A69706F6E6D63
:1016000074737271787776757C7B7A79807F7E7D52
:1016100030160008000000201C000000F012000836
:101620004C1600081C0000200C18000000130008D5
:101630000000000001020304010203040607080978
:0C1640000000000000000000000000009E
:04000005080001AD41
:00000001FF
