:020000040800F2
:1000000000040020C101000845030008B1020008F7
:100010004103000809020008F9040008000000007C
:10002000000000000000000000000000690300085C
:100030000D02000800000000470300088D040008BE
:10004000DB010008DB010008DB010008DB01000820
:10005000DB010008DB010008DB010008DB01000810
:10006000DB010008DB010008DB010008DB01000800
:10007000DB010008DB010008DB010008DB010008F0
:10008000DB010008DB010008DB010008DB010008E0
:10009000DB010008DB010008DB010008DB010008D0
:1000A000DB010008DB010008DB010008DB010008C0
:1000B000DB010008DB010008DB010008DB010008B0
:1000C000DB010008DB010008DB010008DB010008A0
:1000D000DB010008DB010008DB010008DB01000890
:1000E000DB010008DB010008DB010008DB01000880
:1000F000DB010008DB010008DB010008DB01000870
:10010000DB010008DB010008DB010008DB0100085F
:10011000DB010008DB010008DB010008DB0100084F
:10012000DB010008DB010008DB010008DB0100083F
:10013000DB010008DB010008DB010008DB0100082F
:10014000DB010008DB010008DB010008DB0100081F
:10015000DB010008DB010008DB010008DB0100080F
:10016000DB010008DB010008DB010008DB010008FF
:10017000DB010008DB010008DB010008DB010008EF
:10018000DB010008DB010008DB010008DB010008DF
:10019000DB010008DB010008DB010008DB010008CF
:1001A000DB010008DB010008DB010008DFF80CD0F0
:1001B00000F018F80048004745050008000400203A
:1001C0000648804706480047FEE7FEE7FEE7FEE7F1
:1001D000FEE7FEE7FEE7FEE7FEE7FEE79104000824
:1001E000AD010008064C074D06E0E06840F0010351
:1001F00094E8070098471034AC42F6D3FFF7DAFFD3
:1002000090050008A005000800BFFEE77047F0B5A4
:100210000A4600210023002400BF3DE0012505FA25
:1002200001F3156805EA03049C4234D105684F00C8
:100230000326BE40B543056015794E00B5400668FB
:10024000354305601579012D02D01579022D16D19F
:1002500085684F000326BE40B543856055794E0042
:10026000B540866835438560456801268E40B543B4
:100270004560456896798E40B6B235434560C5689D
:100280004F000326BE40B543C560D5794E00B5404A
:10029000C6683543C560491C1029BFD3F0BD02466E
:1002A000002013690B400BB1012000E000207047D3
:1002B00000BFFEE770B504460D4629462046FFF70D
:1002C000EEFF012808D100BF29462046FFF7E7FFCF
:1002D0000128F9D0012070BD0020FCE71CB50121E8
:1002E000802000F031F84FF48060009001208DF8FC
:1002F000040000208DF8060001208DF80700022080
:100300008DF8050069460D48FFF781FF0121802027
:1003100000F01AF84FF40060009001208DF80400FE
:1003200000208DF8060001208DF8070002208DF8CE
:10033000050069460148FFF76AFF1CBD001C02402A
:1003400000BFFEE77047704729B1064A12680243B2
:10035000044B1A6004E0034A12688243014B1A609E
:100360007047000030380240704700000CB5002094
:10037000019000904148006840F480303F49086097
:1003800000BF3E48006800F4003000900198401C17
:100390000190009818B90198B0F5A04FF1D13748F5
:1003A000006800F4003010B10120009001E000204E
:1003B00000900098012860D130484030006840F03B
:1003C00080502E49403108602D48006840F440407C
:1003D0002B4908602948083000682849083108601E
:1003E0000846006840F4004008600846006840F491
:1003F000A05008602348091F0860081F006840F0EB
:100400008070091F086000BF1C48006800F0007081
:100410000028F9D01A48006840F480301849086074
:1004200000BF1748406800F480300028F9D0144815
:10043000006840F400301249086000BF104840686E
:1004400000F400300028F9D040F205700E49086031
:100450000A480830006820F00300084908310860A5
:100460000846006840F00200086000BF03480830FA
:10047000006800F00C000828F8D10CBD00380240DC
:1004800000700040195A4007003C024070470000CD
:1004900010B51548006840F470001349086013480F
:1004A000006840F001001149086000200F49083140
:1004B00008600E4800680E4908400C4908600D4865
:1004C000091D0860081F006820F48020091F0860CB
:1004D000002006490C310860FFF748FF4FF000602C
:1004E00001498039086010BD88ED00E00038024005
:1004F000FFFFF6FE1030002400BFFEE702E008C850
:10050000121F08C1002AFAD170477047002001E08D
:1005100001C1121F002AFBD1704700001CB5012148
:100520000846FFF711FF0120009000208DF804001D
:1005300002208DF8070069460148FFF768FE1CBDE0
:1005400000000240FFF7CAFEFFF7E8FF18E00121B4
:100550000C48FFF7AFFE012805D10B48006880F476
:100560008060094908604FF400510848FFF7A2FE77
:10057000012805D10448006880F400600249086041
:10058000E5E7000000000240141C024000080240A1
:10059000A005000800000020000400000C05000871
:04000005080001AD41
:00000001FF
